{
  "contractName": "simpleSend",
  "abi": [
    {
      "inputs": [
        {
          "internalType": "contract simpleStore",
          "name": "_tokenContract",
          "type": "address"
        },
        {
          "internalType": "uint256",
          "name": "_tokenPrice",
          "type": "uint256"
        }
      ],
      "payable": false,
      "stateMutability": "nonpayable",
      "type": "constructor"
    },
    {
      "anonymous": false,
      "inputs": [
        {
          "indexed": false,
          "internalType": "address",
          "name": "_buyer",
          "type": "address"
        },
        {
          "indexed": false,
          "internalType": "uint256",
          "name": "_amount",
          "type": "uint256"
        }
      ],
      "name": "Sell",
      "type": "event"
    },
    {
      "constant": true,
      "inputs": [],
      "name": "tokenContract",
      "outputs": [
        {
          "internalType": "contract simpleStore",
          "name": "",
          "type": "address"
        }
      ],
      "payable": false,
      "stateMutability": "view",
      "type": "function"
    },
    {
      "constant": true,
      "inputs": [],
      "name": "tokenPrice",
      "outputs": [
        {
          "internalType": "uint256",
          "name": "",
          "type": "uint256"
        }
      ],
      "payable": false,
      "stateMutability": "view",
      "type": "function"
    },
    {
      "constant": true,
      "inputs": [],
      "name": "tokenSold",
      "outputs": [
        {
          "internalType": "uint256",
          "name": "",
          "type": "uint256"
        }
      ],
      "payable": false,
      "stateMutability": "view",
      "type": "function"
    },
    {
      "constant": false,
      "inputs": [
        {
          "internalType": "uint256",
          "name": "_numberOfTokens",
          "type": "uint256"
        }
      ],
      "name": "buyTokens",
      "outputs": [],
      "payable": true,
      "stateMutability": "payable",
      "type": "function"
    },
    {
      "constant": false,
      "inputs": [],
      "name": "endSale",
      "outputs": [],
      "payable": false,
      "stateMutability": "nonpayable",
      "type": "function"
    }
  ],
  "bytecode": "0x608060405234801561001057600080fd5b5060405161077c38038061077c8339818101604052604081101561003357600080fd5b810190808051906020019092919080519060200190929190505050336000806101000a81548173ffffffffffffffffffffffffffffffffffffffff021916908373ffffffffffffffffffffffffffffffffffffffff16021790555081600160006101000a81548173ffffffffffffffffffffffffffffffffffffffff021916908373ffffffffffffffffffffffffffffffffffffffff160217905550806002819055505050610695806100e76000396000f3fe60806040526004361061004a5760003560e01c80633610724e1461004f578063380d831b1461007d578063519ee19e1461009457806355a373d6146100bf5780637ff9b59614610116575b600080fd5b61007b6004803603602081101561006557600080fd5b8101908080359060200190929190505050610141565b005b34801561008957600080fd5b506100926103a9565b005b3480156100a057600080fd5b506100a9610602565b6040518082815260200191505060405180910390f35b3480156100cb57600080fd5b506100d4610608565b604051808273ffffffffffffffffffffffffffffffffffffffff1673ffffffffffffffffffffffffffffffffffffffff16815260200191505060405180910390f35b34801561012257600080fd5b5061012b61062e565b6040518082815260200191505060405180910390f35b61014d81600254610634565b341461015857600080fd5b80600160009054906101000a900473ffffffffffffffffffffffffffffffffffffffff1673ffffffffffffffffffffffffffffffffffffffff166370a08231306040518263ffffffff1660e01b8152600401808273ffffffffffffffffffffffffffffffffffffffff1673ffffffffffffffffffffffffffffffffffffffff16815260200191505060206040518083038186803b1580156101f857600080fd5b505afa15801561020c573d6000803e3d6000fd5b505050506040513d602081101561022257600080fd5b8101908080519060200190929190505050101561023e57600080fd5b600160009054906101000a900473ffffffffffffffffffffffffffffffffffffffff1673ffffffffffffffffffffffffffffffffffffffff1663a9059cbb33836040518363ffffffff1660e01b8152600401808373ffffffffffffffffffffffffffffffffffffffff1673ffffffffffffffffffffffffffffffffffffffff16815260200182815260200192505050602060405180830381600087803b1580156102e757600080fd5b505af11580156102fb573d6000803e3d6000fd5b505050506040513d602081101561031157600080fd5b810190808051906020019092919050505061032b57600080fd5b806003600082825401925050819055507f5e5e995ce3133561afceaa51a9a154d5db228cd7525d34df5185582c18d3df093382604051808373ffffffffffffffffffffffffffffffffffffffff1673ffffffffffffffffffffffffffffffffffffffff1681526020018281526020019250505060405180910390a150565b6000809054906101000a900473ffffffffffffffffffffffffffffffffffffffff1673ffffffffffffffffffffffffffffffffffffffff163373ffffffffffffffffffffffffffffffffffffffff161461040257600080fd5b600160009054906101000a900473ffffffffffffffffffffffffffffffffffffffff1673ffffffffffffffffffffffffffffffffffffffff1663a9059cbb6000809054906101000a900473ffffffffffffffffffffffffffffffffffffffff16600160009054906101000a900473ffffffffffffffffffffffffffffffffffffffff1673ffffffffffffffffffffffffffffffffffffffff166370a08231306040518263ffffffff1660e01b8152600401808273ffffffffffffffffffffffffffffffffffffffff1673ffffffffffffffffffffffffffffffffffffffff16815260200191505060206040518083038186803b15801561050157600080fd5b505afa158015610515573d6000803e3d6000fd5b505050506040513d602081101561052b57600080fd5b81019080805190602001909291905050506040518363ffffffff1660e01b8152600401808373ffffffffffffffffffffffffffffffffffffffff1673ffffffffffffffffffffffffffffffffffffffff16815260200182815260200192505050602060405180830381600087803b1580156105a557600080fd5b505af11580156105b9573d6000803e3d6000fd5b505050506040513d60208110156105cf57600080fd5b81019080805190602001909291905050506105e957600080fd5b3373ffffffffffffffffffffffffffffffffffffffff16ff5b60035481565b600160009054906101000a900473ffffffffffffffffffffffffffffffffffffffff1681565b60025481565b600080821480610651575082828385029250828161064e57fe5b04145b61065a57600080fd5b9291505056fea265627a7a72315820f49584f5b3c280998cd006beef835a0588c183c9dff02ca65c16d9b767b3c33864736f6c63430005100032",
  "source": "pragma solidity >=0.4.22;\r\nimport \"./simpleStore.sol\";\r\n\r\ncontract simpleSend {\r\n    //admin is a state var\r\n    address admin;\r\n    //will give the address of token\r\n    simpleStore public tokenContract;\r\n    uint256 public tokenPrice;\r\n    uint256 public tokenSold;\r\n\r\n    event Sell(address _buyer, uint256 _amount);\r\n\r\n    constructor(simpleStore _tokenContract, uint256 _tokenPrice) public {\r\n        //Assign an admin\r\n\r\n        //msg is the global var\r\n        admin = msg.sender;\r\n        //Assign Token Contract\r\n        tokenContract = _tokenContract;\r\n        //Set up the Token Price\r\n        tokenPrice = _tokenPrice;\r\n    }\r\n\r\n    // Multiply functions\r\n\r\n    function multiply(uint256 x, uint256 y) internal pure returns (uint256 z) {\r\n        require(y == 0 || (z = x * y) / y == x);\r\n    }\r\n\r\n    function buyTokens(uint256 _numberOfTokens) public payable {\r\n        //Require that value is equal to tokens\r\n        require(msg.value == multiply(_numberOfTokens, tokenPrice));\r\n        //Require that the contract has enough tokens\r\n\r\n        //Something wrong with this one 4:19:25 msg.sender should be \"this\"\r\n        //Also decrement or increment in numberofTokens in test file isn't affecting tests\r\n        require(tokenContract.balanceOf(address(this)) >= _numberOfTokens);\r\n        //Require that transfer is successful\r\n        require(tokenContract.transfer(msg.sender, _numberOfTokens));\r\n        //Keep track of numbers of token sold\r\n        tokenSold += _numberOfTokens;\r\n        //Emit Sell event\r\n        emit Sell(msg.sender, _numberOfTokens);\r\n    }\r\n\r\n    // ending SharUToken Sale\r\n\r\n    function endSale() public {\r\n        //Rwquire nly admin can do this\r\n\r\n        require(msg.sender == admin);\r\n        //transfer the remaining of tokesn back to admin\r\n        require(\r\n            tokenContract.transfer(\r\n                admin,\r\n                tokenContract.balanceOf(address(this))\r\n            )\r\n        );\r\n\r\n        //not working\r\n        selfdestruct(msg.sender);\r\n        // deploy contract\r\n    }\r\n}",
  "sourcePath": "C:\\Users\\HP\\Desktop\\projectdemo\\contracts\\simpleSend.sol",
  "compiler": {
    "name": "solc",
    "version": "0.5.16+commit.9c3226ce.Emscripten.clang"
  },
  "schemaVersion": "3.4.6",
  "updatedAt": "2022-04-30T09:09:48.307Z",
  "networkType": "ethereum",
  "devdoc": {
    "methods": {}
  },
  "userdoc": {
    "methods": {}
  }
}